{
  "_format": "hh-sol-artifact-1",
  "contractName": "Mariage",
  "sourceName": "contracts/Mariage.sol",
  "abi": [
    {
      "inputs": [
        {
          "internalType": "address",
          "name": "_conjoint1",
          "type": "address"
        },
        {
          "internalType": "address",
          "name": "_conjoint2",
          "type": "address"
        }
      ],
      "stateMutability": "nonpayable",
      "type": "constructor"
    },
    {
      "anonymous": false,
      "inputs": [
        {
          "indexed": false,
          "internalType": "address",
          "name": "child",
          "type": "address"
        }
      ],
      "name": "ChildAdded",
      "type": "event"
    },
    {
      "anonymous": false,
      "inputs": [
        {
          "indexed": true,
          "internalType": "address",
          "name": "conjoint1",
          "type": "address"
        },
        {
          "indexed": true,
          "internalType": "address",
          "name": "conjoint2",
          "type": "address"
        }
      ],
      "name": "DivorceContract",
      "type": "event"
    },
    {
      "anonymous": false,
      "inputs": [
        {
          "indexed": true,
          "internalType": "address",
          "name": "conjoint1",
          "type": "address"
        },
        {
          "indexed": true,
          "internalType": "address",
          "name": "conjoint2",
          "type": "address"
        }
      ],
      "name": "MariageContractCreated",
      "type": "event"
    },
    {
      "inputs": [
        {
          "internalType": "address",
          "name": "_child",
          "type": "address"
        }
      ],
      "name": "addChild",
      "outputs": [],
      "stateMutability": "nonpayable",
      "type": "function"
    },
    {
      "inputs": [
        {
          "internalType": "uint256",
          "name": "",
          "type": "uint256"
        }
      ],
      "name": "childrens",
      "outputs": [
        {
          "internalType": "address",
          "name": "",
          "type": "address"
        }
      ],
      "stateMutability": "view",
      "type": "function"
    },
    {
      "inputs": [],
      "name": "conjoint1",
      "outputs": [
        {
          "internalType": "address",
          "name": "",
          "type": "address"
        }
      ],
      "stateMutability": "view",
      "type": "function"
    },
    {
      "inputs": [],
      "name": "conjoint2",
      "outputs": [
        {
          "internalType": "address",
          "name": "",
          "type": "address"
        }
      ],
      "stateMutability": "view",
      "type": "function"
    },
    {
      "inputs": [],
      "name": "divorce",
      "outputs": [],
      "stateMutability": "nonpayable",
      "type": "function"
    },
    {
      "inputs": [],
      "name": "getChildrens",
      "outputs": [
        {
          "internalType": "address[]",
          "name": "",
          "type": "address[]"
        }
      ],
      "stateMutability": "view",
      "type": "function"
    },
    {
      "inputs": [],
      "name": "getConjoint1",
      "outputs": [
        {
          "internalType": "address",
          "name": "",
          "type": "address"
        }
      ],
      "stateMutability": "view",
      "type": "function"
    },
    {
      "inputs": [],
      "name": "getConjoint2",
      "outputs": [
        {
          "internalType": "address",
          "name": "",
          "type": "address"
        }
      ],
      "stateMutability": "view",
      "type": "function"
    },
    {
      "inputs": [
        {
          "internalType": "address",
          "name": "conjoint",
          "type": "address"
        }
      ],
      "name": "getConjointOf",
      "outputs": [
        {
          "internalType": "address",
          "name": "",
          "type": "address"
        }
      ],
      "stateMutability": "view",
      "type": "function"
    },
    {
      "inputs": [],
      "name": "getConjoints",
      "outputs": [
        {
          "internalType": "address",
          "name": "",
          "type": "address"
        },
        {
          "internalType": "address",
          "name": "",
          "type": "address"
        }
      ],
      "stateMutability": "view",
      "type": "function"
    },
    {
      "inputs": [],
      "name": "status",
      "outputs": [
        {
          "internalType": "string",
          "name": "",
          "type": "string"
        }
      ],
      "stateMutability": "view",
      "type": "function"
    }
  ],
  "bytecode": "0x60806040526040518060400160405280600681526020017f4d617269c3a90000000000000000000000000000000000000000000000000000815250600390816200004a91906200041d565b503480156200005857600080fd5b50604051620018253803806200182583398181016040528101906200007e91906200056e565b816000806101000a81548173ffffffffffffffffffffffffffffffffffffffff021916908373ffffffffffffffffffffffffffffffffffffffff16021790555080600160006101000a81548173ffffffffffffffffffffffffffffffffffffffff021916908373ffffffffffffffffffffffffffffffffffffffff160217905550600160009054906101000a900473ffffffffffffffffffffffffffffffffffffffff1673ffffffffffffffffffffffffffffffffffffffff1660008054906101000a900473ffffffffffffffffffffffffffffffffffffffff1673ffffffffffffffffffffffffffffffffffffffff167f914b8146eb91c73673765438dd6530ba1c68ee1328bc183abad692e6409b373560405160405180910390a35050620005b5565b600081519050919050565b7f4e487b7100000000000000000000000000000000000000000000000000000000600052604160045260246000fd5b7f4e487b7100000000000000000000000000000000000000000000000000000000600052602260045260246000fd5b600060028204905060018216806200022557607f821691505b6020821081036200023b576200023a620001dd565b5b50919050565b60008190508160005260206000209050919050565b60006020601f8301049050919050565b600082821b905092915050565b600060088302620002a57fffffffffffffffffffffffffffffffffffffffffffffffffffffffffffffffff8262000266565b620002b1868362000266565b95508019841693508086168417925050509392505050565b6000819050919050565b6000819050919050565b6000620002fe620002f8620002f284620002c9565b620002d3565b620002c9565b9050919050565b6000819050919050565b6200031a83620002dd565b62000332620003298262000305565b84845462000273565b825550505050565b600090565b620003496200033a565b620003568184846200030f565b505050565b5b818110156200037e57620003726000826200033f565b6001810190506200035c565b5050565b601f821115620003cd57620003978162000241565b620003a28462000256565b81016020851015620003b2578190505b620003ca620003c18562000256565b8301826200035b565b50505b505050565b600082821c905092915050565b6000620003f260001984600802620003d2565b1980831691505092915050565b60006200040d8383620003df565b9150826002028217905092915050565b6200042882620001a3565b67ffffffffffffffff811115620004445762000443620001ae565b5b6200045082546200020c565b6200045d82828562000382565b600060209050601f83116001811462000495576000841562000480578287015190505b6200048c8582620003ff565b865550620004fc565b601f198416620004a58662000241565b60005b82811015620004cf57848901518255600182019150602085019450602081019050620004a8565b86831015620004ef5784890151620004eb601f891682620003df565b8355505b6001600288020188555050505b505050505050565b600080fd5b600073ffffffffffffffffffffffffffffffffffffffff82169050919050565b6000620005368262000509565b9050919050565b620005488162000529565b81146200055457600080fd5b50565b60008151905062000568816200053d565b92915050565b6000806040838503121562000588576200058762000504565b5b6000620005988582860162000557565b9250506020620005ab8582860162000557565b9150509250929050565b61126080620005c56000396000f3fe608060405234801561001057600080fd5b50600436106100a95760003560e01c8063a50e0dad11610071578063a50e0dad14610154578063a51cb49614610172578063bce4f6c414610190578063dff44b2f146101ae578063ef475447146101b8578063f11afcd1146101d7576100a9565b806310367bf8146100ae5780631eee993a146100cc578063200d2ed2146100e8578063240a1df21461010657806398a3f2c914610124575b600080fd5b6100b6610207565b6040516100c3919061095e565b60405180910390f35b6100e660048036038101906100e191906109aa565b610231565b005b6100f06103b7565b6040516100fd9190610a67565b60405180910390f35b61010e610445565b60405161011b919061095e565b60405180910390f35b61013e60048036038101906101399190610abf565b610469565b60405161014b919061095e565b60405180910390f35b61015c6104a8565b604051610169919061095e565b60405180910390f35b61017a6104d1565b604051610187919061095e565b60405180910390f35b6101986104f7565b6040516101a59190610baa565b60405180910390f35b6101b6610585565b005b6101c061073f565b6040516101ce929190610bcc565b60405180910390f35b6101f160048036038101906101ec91906109aa565b61078e565b6040516101fe919061095e565b60405180910390f35b6000600160009054906101000a900473ffffffffffffffffffffffffffffffffffffffff16905090565b60008054906101000a900473ffffffffffffffffffffffffffffffffffffffff1673ffffffffffffffffffffffffffffffffffffffff168173ffffffffffffffffffffffffffffffffffffffff16141580156102db5750600160009054906101000a900473ffffffffffffffffffffffffffffffffffffffff1673ffffffffffffffffffffffffffffffffffffffff168173ffffffffffffffffffffffffffffffffffffffff1614155b61031a576040517f08c379a000000000000000000000000000000000000000000000000000000000815260040161031190610c67565b60405180910390fd5b6002819080600181540180825580915050600190039060005260206000200160009091909190916101000a81548173ffffffffffffffffffffffffffffffffffffffff021916908373ffffffffffffffffffffffffffffffffffffffff1602179055507fa016866023d98d9af30c4dd99810d92915ae7897f25baa30c8c826bf077f486b816040516103ac919061095e565b60405180910390a150565b600380546103c490610cb6565b80601f01602080910402602001604051908101604052809291908181526020018280546103f090610cb6565b801561043d5780601f106104125761010080835404028352916020019161043d565b820191906000526020600020905b81548152906001019060200180831161042057829003601f168201915b505050505081565b60008054906101000a900473ffffffffffffffffffffffffffffffffffffffff1681565b6002818154811061047957600080fd5b906000526020600020016000915054906101000a900473ffffffffffffffffffffffffffffffffffffffff1681565b60008060009054906101000a900473ffffffffffffffffffffffffffffffffffffffff16905090565b600160009054906101000a900473ffffffffffffffffffffffffffffffffffffffff1681565b6060600280548060200260200160405190810160405280929190818152602001828054801561057b57602002820191906000526020600020905b8160009054906101000a900473ffffffffffffffffffffffffffffffffffffffff1673ffffffffffffffffffffffffffffffffffffffff1681526020019060010190808311610531575b5050505050905090565b60008054906101000a900473ffffffffffffffffffffffffffffffffffffffff1673ffffffffffffffffffffffffffffffffffffffff163373ffffffffffffffffffffffffffffffffffffffff16148061062c5750600160009054906101000a900473ffffffffffffffffffffffffffffffffffffffff1673ffffffffffffffffffffffffffffffffffffffff163373ffffffffffffffffffffffffffffffffffffffff16145b61066b576040517f08c379a000000000000000000000000000000000000000000000000000000000815260040161066290610d33565b60405180910390fd5b60405160200161067a90610daa565b6040516020818303038152906040528051906020012060036040516020016106a29190610e57565b60405160208183030381529060405280519060200120146106f8576040517f08c379a00000000000000000000000000000000000000000000000000000000081526004016106ef90610ee0565b60405180910390fd5b6040518060400160405280600881526020017f4469766f7263c3a90000000000000000000000000000000000000000000000008152506003908161073c91906110c6565b50565b60008060008054906101000a900473ffffffffffffffffffffffffffffffffffffffff16600160009054906101000a900473ffffffffffffffffffffffffffffffffffffffff16915091509091565b60008060009054906101000a900473ffffffffffffffffffffffffffffffffffffffff1673ffffffffffffffffffffffffffffffffffffffff168273ffffffffffffffffffffffffffffffffffffffff1614806108385750600160009054906101000a900473ffffffffffffffffffffffffffffffffffffffff1673ffffffffffffffffffffffffffffffffffffffff168273ffffffffffffffffffffffffffffffffffffffff16145b610877576040517f08c379a000000000000000000000000000000000000000000000000000000000815260040161086e9061120a565b60405180910390fd5b60008054906101000a900473ffffffffffffffffffffffffffffffffffffffff1673ffffffffffffffffffffffffffffffffffffffff168273ffffffffffffffffffffffffffffffffffffffff16036108f457600160009054906101000a900473ffffffffffffffffffffffffffffffffffffffff169050610918565b60008054906101000a900473ffffffffffffffffffffffffffffffffffffffff1690505b919050565b600073ffffffffffffffffffffffffffffffffffffffff82169050919050565b60006109488261091d565b9050919050565b6109588161093d565b82525050565b6000602082019050610973600083018461094f565b92915050565b600080fd5b6109878161093d565b811461099257600080fd5b50565b6000813590506109a48161097e565b92915050565b6000602082840312156109c0576109bf610979565b5b60006109ce84828501610995565b91505092915050565b600081519050919050565b600082825260208201905092915050565b60005b83811015610a115780820151818401526020810190506109f6565b60008484015250505050565b6000601f19601f8301169050919050565b6000610a39826109d7565b610a4381856109e2565b9350610a538185602086016109f3565b610a5c81610a1d565b840191505092915050565b60006020820190508181036000830152610a818184610a2e565b905092915050565b6000819050919050565b610a9c81610a89565b8114610aa757600080fd5b50565b600081359050610ab981610a93565b92915050565b600060208284031215610ad557610ad4610979565b5b6000610ae384828501610aaa565b91505092915050565b600081519050919050565b600082825260208201905092915050565b6000819050602082019050919050565b610b218161093d565b82525050565b6000610b338383610b18565b60208301905092915050565b6000602082019050919050565b6000610b5782610aec565b610b618185610af7565b9350610b6c83610b08565b8060005b83811015610b9d578151610b848882610b27565b9750610b8f83610b3f565b925050600181019050610b70565b5085935050505092915050565b60006020820190508181036000830152610bc48184610b4c565b905092915050565b6000604082019050610be1600083018561094f565b610bee602083018461094f565b9392505050565b7f54686973206164647265737320697320616c72656164792070617274206f662060008201527f74686973206d6172726961676500000000000000000000000000000000000000602082015250565b6000610c51602d836109e2565b9150610c5c82610bf5565b604082019050919050565b60006020820190508181036000830152610c8081610c44565b9050919050565b7f4e487b7100000000000000000000000000000000000000000000000000000000600052602260045260246000fd5b60006002820490506001821680610cce57607f821691505b602082108103610ce157610ce0610c87565b5b50919050565b7f596f75206172656e27742070617274206f662074686973206d61727269616765600082015250565b6000610d1d6020836109e2565b9150610d2882610ce7565b602082019050919050565b60006020820190508181036000830152610d4c81610d10565b9050919050565b600081905092915050565b7f4d617269c3a90000000000000000000000000000000000000000000000000000600082015250565b6000610d94600683610d53565b9150610d9f82610d5e565b600682019050919050565b6000610db582610d87565b9150819050919050565b60008190508160005260206000209050919050565b60008154610de181610cb6565b610deb8186610d53565b94506001821660008114610e065760018114610e1b57610e4e565b60ff1983168652811515820286019350610e4e565b610e2485610dbf565b60005b83811015610e4657815481890152600182019150602081019050610e27565b838801955050505b50505092915050565b6000610e638284610dd4565b915081905092915050565b7f54686973206d6172726961676520697320616c7265616479206469766f72636560008201527f6400000000000000000000000000000000000000000000000000000000000000602082015250565b6000610eca6021836109e2565b9150610ed582610e6e565b604082019050919050565b60006020820190508181036000830152610ef981610ebd565b9050919050565b7f4e487b7100000000000000000000000000000000000000000000000000000000600052604160045260246000fd5b60006020601f8301049050919050565b600082821b905092915050565b600060088302610f7c7fffffffffffffffffffffffffffffffffffffffffffffffffffffffffffffffff82610f3f565b610f868683610f3f565b95508019841693508086168417925050509392505050565b6000819050919050565b6000610fc3610fbe610fb984610a89565b610f9e565b610a89565b9050919050565b6000819050919050565b610fdd83610fa8565b610ff1610fe982610fca565b848454610f4c565b825550505050565b600090565b611006610ff9565b611011818484610fd4565b505050565b5b818110156110355761102a600082610ffe565b600181019050611017565b5050565b601f82111561107a5761104b81610dbf565b61105484610f2f565b81016020851015611063578190505b61107761106f85610f2f565b830182611016565b50505b505050565b600082821c905092915050565b600061109d6000198460080261107f565b1980831691505092915050565b60006110b6838361108c565b9150826002028217905092915050565b6110cf826109d7565b67ffffffffffffffff8111156110e8576110e7610f00565b5b6110f28254610cb6565b6110fd828285611039565b600060209050601f831160018114611130576000841561111e578287015190505b61112885826110aa565b865550611190565b601f19841661113e86610dbf565b60005b8281101561116657848901518255600182019150602085019450602081019050611141565b86831015611183578489015161117f601f89168261108c565b8355505b6001600288020188555050505b505050505050565b7f5468697320616464726573732069736e27742070617274206f6620746869732060008201527f6d61727269616765000000000000000000000000000000000000000000000000602082015250565b60006111f46028836109e2565b91506111ff82611198565b604082019050919050565b60006020820190508181036000830152611223816111e7565b905091905056fea26469706673582212200753bdbbafa42c790b702348dd82d19720f0dda86d221a53388d7c95aad42c9b64736f6c63430008180033",
  "linkReferences": {},
  "deployedLinkReferences": {}
}